:02000002B0004C
:1040000000400B00AE530B00000006000C00050240
:084010000401B41400000000DB
:04401800B0500B0099
:10401C00034613F8012B002AFBD1181A01387047FC
:10402C0009480A49884208B505D0094A824202D09B
:10403C00121A00F08DFF0748074A0021121A00F0EF
:10404C0095FF014808BD00BF40E6032014530B0048
:10405C00ACE60320ACE60320F0E7032070B5074E76
:10406C00074C00F0BFFBA41BA4080025AC4200D1F8
:10407C0070BD56F8043B98470135F7E7CC520B005E
:10408C00F0520B0000F013B808B500F025F8BDE8AD
:10409C00084000F05FBB00F053BA00F059BA00784A
:1040AC00B0FA80F04009704701230370704708B5DF
:1040BC000121052000F08EFE0121062000F08AFE71
:1040CC000121072000F086FE00F094FCBDE80840BA
:1040DC004FF4165100F082BC08B50021072000F007
:1040EC008AFEFF21062000F086FEFF21052000F04D
:1040FC0082FE4FF47A7000F001FBFF21072000F0E4
:10410C007AFE0021062000F076FEFF21052000F04B
:10411C0072FE4FF47A7000F0F1FAFF21072000F0E4
:10412C006AFEFF21062000F066FE0021052000F04B
:10413C0062FE4FF47A7000F0E1FA0021072000F0E3
:10414C005AFEC821062000F056FEFF21052000F083
:10415C0052FE4FF47A7000F0D1FA0021072000F0E3
:10416C004AFE0021062000F046FEFF21052000F04B
:10417C0042FE4FF47A7000F0C1FA0021072000F0E3
:10418C003AFEFF21062000F036FE0021052000F04B
:10419C0032FE4FF47A7000F0B1FAFF21072000F0E4
:1041AC002AFE0021062000F026FE0520002100F04A
:1041BC0022FEBDE808404FF47A7000F09FBA000070
:1041CC0010B5074B074A9A600024C3E9004403204A
:1041DC0000F022F921460120BDE8104000F02CB976
:1041EC00ACE603200000FFFF08B5024B1B689B6880
:1041FC00019308BD6802030008B5024B1B68DB681D
:10420C00019308BD6802030008B5024B1B685B688C
:10421C00019308BD2C02030008B5024B1B689B6878
:10422C00019308BD2C02030008B5024B1B68DB6828
:10423C00019308BD2C02030008B5024B1B689B6A56
:10424C00019308BD2C02030008B5024B1B689B6F41
:10425C00019308BD2C02030008B5024B1B685B6878
:10426C00019308BD1802030008B5024B1B685B697B
:10427C00019308BD1802030008B5024B1B685B6C68
:10428C00019308BD4802030008B5024B1B685B692B
:10429C00019308BD6402030008B5024B1B68DB6880
:1042AC00019308BD3C02030008B5024B1B681B6957
:1042BC00019308BD3C02030008B5024B1B685B6907
:1042CC00019308BD3C02030008B5024B1B689B69B7
:1042DC00019308BD3C02030008B5024B1B68DB6967
:1042EC00019308BD3C02030008B5024B1B681B6A16
:1042FC00019308BD3C02030008B5024B1B689B6A86
:10430C00019308BD3C02030008B5024B1B681B6CF3
:10431C00019308BD3C02030008B5024B1B681B6AE5
:10432C00019308BD2802030008B5024B1B685B6AA9
:10433C00019308BD2802030008B5024B1B689B6A59
:10434C00019308BD2802030008B5024B1B68DB6A09
:10435C00019308BD2802030008B5024B1B681B6BB8
:10436C00019308BD2802030008B5024B1B685B6B68
:10437C00019308BD2802030008B5024B1B681B6C97
:10438C00019308BD2802030008B5024B1B68DB69CA
:10439C00019308BD3002030008B5024B1B681B6A71
:1043AC00019308BD3002030008B5024B1B681B6863
:1043BC00019308BD4C02030008B5024B1B685B68F7
:1043CC00019308BD4C02030008B5024B1B681B6926
:1043DC00019308BD4C02030008B5024B1B685B69D6
:1043EC00019308BD4C02030008B5024B1B689B6986
:1043FC00019308BD4C02030008B5024B1B68DB6936
:10440C00019308BD4C02030008B5024B1B681B6AE4
:10441C00019308BD4C02030008B5024B1B685B6896
:10442C00019308BD2002030008B5024B1B685B69B1
:10443C00019308BD2002030008B5024B1B68DB6A20
:10444C00019308BD2002030008B5034B1B68D3F889
:10445C008830019308BD00002002030008B5034B0F
:10446C001B68D3F89430019308BD000020020300B0
:10447C0008B5024B1B685B68019308BD4002030042
:10448C0008B5024B1B689B68019308BD40020300F2
:10449C0008B5024B1B68DB68019308BD40020300A2
:1044AC0008B5024B1B681B69019308BD4002030051
:1044BC0008B5024B1B685B69019308BD4002030001
:1044CC0008B5024B1B689B69019308BD40020300B1
:1044DC0008B5024B1B68DB69019308BD4002030061
:1044EC0008B5024B1B681B6A019308BD4002030010
:1044FC0008B5024B1B681B6B019308BD40020300FF
:10450C0008B5024B1B685B6B019308BD40020300AE
:10451C0008B5024B1B681B6C019308BD40020300DD
:10452C0008B5024B1B685B6C019308BD400203008D
:10453C0008B5024B1B68DB6B019308BD44020300FA
:10454C0008B5024B1B681B68019308BD1C020300D5
:10455C0008B5024B1B685B68019308BD1C02030085
:10456C0008B5024B1B681B6C019308BD1C020300B1
:10457C0008B5024B1B685B6C019308BD1C02030061
:10458C00002240681146FFF7ABBF0022406811467D
:10459C00FFF7B6BF40680022FFF7AABF40680022B1
:1045AC0081F00101FFF794BF002340681A461946B9
:1045BC00FFF786BF002340681A461946FFF778BFFD
:1045CC00002240681146FFF76BBF0022406811467D
:1045DC00FFF756BF406800220221FFF759BF0023A6
:1045EC0040681A46FFF744BF024B03225A60024A46
:1045FC001A607047B8E60320CC500B0010B5044687
:10460C0008462170FFF7C0FE00236360204610BDF2
:10461C00054B02221A60054B054A9A600020C3E93B
:10462C000000FFF7F9BE00BFCCE60320C0E6032074
:10463C000000FFFF024800230360FFF71DBE00BF10
:10464C00D0E60320F8B506460D468F180024BD426F
:10465C000CD0336815F8011B9B6830469847031E35
:10466C0001DB1C44F3E7002C08BF1C462046F8BDB8
:10467C0013B50446084659B10191FFF7C9FC2368EC
:10468C000199DB680246204602B0BDE8104018478D
:10469C0002B010BD03689B68184730B58BB000237F
:1046AC00012A8DF8243098BF0A2209AC0D46B1FBC3
:1046BC00F2F101FB125303F0FF03092B94BF3033CB
:1046CC003733DBB2AA4204F8013DEFD92146FFF79C
:1046DC00CFFF0BB030BD0000014B024A1A6070478F
:1046EC00D4E6032000510B00024B1A68024B1A60EF
:1046FC00704700BF40E60320D8E603200021FFF7F7
:10470C0093BE0000014B00229A607047DCE6032048
:10471C00014B1860704700BF44E6032008B50B4BF3
:10472C0043B100F067F903681B699847002801DD65
:10473C00AFF30080064B43B100F09EFB03681B698E
:10474C009847002801DDAFF3008008BD0000000091
:10475C000000000008B5FFF7E1FFFFF785FD014BF6
:10476C00186008BD40E703200548064A064908B50D
:10477C00121A00F0EDFB054B054A1A6008BD00BF8C
:10478C0000F4032004F4032080530B0000F40320F6
:10479C001E1C279A07B5002300931A466FF0770169
:1047AC00FFF75CFE03B05DF804FB000007B543881F
:1047BC000A2B08D0502B0BD1094B1B684BB103B003
:1047CC005DF804EB1847FFF7E5FF03B05DF804FB59
:1047DC00002300931A466FF07701FFF73FFEF4E7D2
:1047EC00F0E6032010B512480021FFF7C1FE114B73
:1047FC001A68114B9A42114B0CBF012200221A70FD
:10480C0001D0FFF7B1FFFFF727FD044600F0B6FB20
:10481C000B4B13B12046AFF3008000210848FFF783
:10482C0087FEBDE8104007480021FFF70DBE00BF12
:10483C001D470B0000F403201E1C279AECE60320F6
:10484C0000000000B9470B00704710B51821044652
:10485C00FFF723FC204610BDF0B5037D062B8DB071
:10486C000E4600F104074FF0000412D000F10805C9
:10487C0015F8011D0A223046FFF70FFFAF42044422
:10488C0019D0002CF4D02E213046FFF703FF04443E
:10489C00EEE72F236A4639460A208DF80040FFF7D1
:1048AC00F3FC6846FFF7B4FB33680246DB686946E5
:1048BC0030469847044620460DB0F0BD10B5054B68
:1048CC000446112240F8043B002100F04FFB204627
:1048DC0010BD00BF28510B000346074A10B543F822
:1048EC00042B01F1100251F8044B43F8044B914294
:1048FC00F9D10A781A7010BD28510B0010B59DF82B
:10490C00084044EA032343EA024242EA01610423D9
:10491C004160037510BD000007B5064B0360CB78F2
:10492C0000938B784A780978FFF7E8FF03B05DF8BD
:10493C0004FB00BF28510B0041747047704770474F
:10494C0008B50021007CFFF74FFD40EAE07008BD80
:10495C0008B50121007CFFF747FD40EAE07008BD77
:10496C0008B5007CFFF738FD20EAE07008BD08B5FB
:10497C00007CFFF729FD20EAE07008BD13B5044662
:10498C00007C0191FFF728FD0028019901DC607C77
:10499C0020B1207CFFF730FD20EAE07002B010BDA2
:1049AC00007CFFF731BD10B514210446FFF775FBF1
:1049BC00204610BD10B54FF47A730446084600210A
:1049CC00C4E90113044B2360012320746374114662
:1049DC00FFF7EAFC204610BD3C510B00007C002286
:1049EC00FFF7EABC10B514220446002100F0BEFA11
:1049FC00204610BD10B50F4C88B003A8FFF7F2FF8E
:104A0C002178BFF35B8F11F001010FD1204601918A
:104A1C00FFF745FB019948B103AA0748FFF7CAFF06
:104A2C002046FFF741FB054800F08CFA024808B01D
:104A3C0010BD00BFF4E60320F8E6032049490B0043
:104A4C0070474174704708B5007CFFF755FC20EAAD
:104A5C00E07008BD08B5007CFFF726FC20EAE0708A
:104A6C0008BD08B5007CFFF72FFC40EAE07008BDDC
:104A7C0008B5007CFFF720FC40EAE07008BD007C24
:104A8C00FFF72ABC37B5457C04462DB1207C03B01A
:104A9C00BDE83040FFF700BC007C0191FFF72CFC17
:104AAC0000280199F2DC284603B030BD10B5142162
:104ABC000446FFF7F2FA204610BD000010B54FF483
:104ACC007A730446084611460022C4E90123044BBC
:104ADC002360012320746374FFF716FC204610BD7D
:104AEC006C510B007047F8B5064615460C468F18EE
:104AFC00BC4206D0336814F8011B9B6830469847BB
:104B0C00F6E72846F8BD007C0022FFF705BC007CC8
:104B1C000021FFF709BC007C0021FFF70DBC007CD5
:104B2C000021FFF711BC007C0021FFF715BC10B56C
:104B3C0014210446FFF7B1FA204610BD38B50446DF
:104B4C0015464FF47A730022C4E90123094B2174F2
:104B5C00084623602946FFF70FFCBF3008D16B696C
:104B6C00DB0705D56868FFF7F3FCE868FFF7F0FC96
:104B7C00204638BD9C510B00002240681146FFF7BF
:104B8C008FBC002240681146FFF7AABC0022406887
:104B9C001146FFF7B5BC40680022FFF7A9BC40687E
:104BAC00002281F00101FFF793BC002340681A46F4
:104BBC001946FFF785BC002340681A461946FFF7D3
:104BCC0077BC002240681146FFF75ABC40680022AF
:104BDC000221FFF75DBC002340681A46FFF748BC72
:104BEC00024B04225A60024A1A6070470CE70320F9
:104BFC00C4510B00002340681A46FFF739BC4068CB
:104C0C0000220221FFF744BC002240681146FFF746
:104C1C0037BC002240681146FFF742BC00234068B5
:104C2C001A461946FFF744BC002340681A46194639
:104C3C00FFF746BC40680021FFF76ABC40680021C2
:104C4C00FFF76EBC4068002281F00101FFF740BC09
:104C5C0040680022FFF74CBC002240681146FFF769
:104C6C004FBC002240681146FFF73ABC2DE9F043D7
:104C7C0095B014460D460746FFF720FE00211C2276
:104C8C000DA8009100F072F940230C9320466B465E
:104C9C000CAA0021FFF7B0FA044600284BD10246BB
:104CAC0001216868FFF7FCFB0221804622466868F8
:104CBC00FFF7F6FB009E81462146002E3BD00029D3
:104CCC0039D17368022B03D00A2B11D0F669F4E7A3
:104CDC00B8F1000FFAD0716906A8043107ADFFF7DF
:104CEC001BFE0FCD3C1D0FC42B6823704146EDE716
:104CFC00B9F1000FEAD07469102201A800F036F95E
:104D0C0006238DF8143001AD04F10803183418682B
:104D1C0059682A4603C20833A3421546F7D101A9A4
:104D2C0006A807ADFFF7D8FD0FCD3C1D0FC42B68AF
:104D3C0023704946CAE70098FFF756FA384615B073
:104D4C00BDE8F083024B034A1A6000225A60704798
:104D5C0014E7032000520B00232813B502D90020BE
:104D6C0002B010BDA0F10B03022B1AD8174C2178FE
:104D7C00BFF35B8F11F001010BD120460191FFF7BE
:104D8C008EF9019928B11248FFF738FC2046FFF73D
:104D9C008BF90F4B1878FFF7FFFA0028DFD10120B1
:104DAC00DEE7012809D800F0A7F80021007CFFF706
:104DBC00DBFA80F00100C0B2D2E709380128EED846
:104DCC0000F05AF8007CFFF78FFAF2E71CE703209B
:104DDC0020E70320232838B504460D460AD8FF29BE
:104DEC0008D0FFF7B9FF28B129462046BDE8384066
:104DFC00FFF712BA38BD38B504460D46FFF7ACFFC5
:104E0C00F0B104212046FFF7FFF9042805D1A9B21F
:104E1C002046BDE83840FFF70FBA02212046FFF7C5
:104E2C00F3F902280CD12046FFF7FEF9012801D036
:104E3C00042805D129462046BDE83840FFF704BABE
:104E4C0038BD704738B5044614252A46002100F0B9
:104E5C008DF825804025074925812846258200F0BC
:104E6C006FF804496060284600F06AF8E06020465C
:104E7C0038BD00BF34520B0030B50E4D2978BFF34E
:104E8C005B8F11F0010487B011D12846FFF707F9A9
:104E9C0068B101A8FFF7D6FF01AA21460648FFF723
:104EAC000DFE2846FFF700F9044800F04BF80248C5
:104EBC0007B030BD28E703202CE703204F4E0B0032
:104ECC007047000038B50A4B036001230446436168
:104EDC000849202000F034F8202560600549A560C1
:104EEC00284600F02DF8C4E90305204638BD00BF64
:104EFC001800010034520B0030B50E4D2978BFF369
:104F0C005B8F11F0010487B011D12846FFF7C7F869
:104F1C0068B16846FFF7D6FF6A4621460648FFF798
:104F2C000DFE2846FFF7C0F8044800F00BF80248C5
:104F3C0007B030BD44E7032048E70320CD4E0B00FB
:104F4C00FFF7A9B8002301461A46184600F044B8EA
:104F5C000A44914200F1FF3300D1704710B511F8AB
:104F6C00014B03F8014F9142F9D110BD02440346A5
:104F7C00934200D1704703F8011BF9E738B5104B89
:104F8C001D68AB6B0446B3B91820FFF7D9FA02467B
:104F9C00A86320B90B4B0C484221FFF7E1FA0B49EF
:104FAC000B4BC0E900130B4B83600B238381002157
:104FBC000120C2E90401AB6B00221C615A6138BDAF
:104FCC0044E6032035520B004C520B000E33CDAB94
:104FDC0034126DE6ECDE05002DE9F843DFF8B880FD
:104FEC000646D8F800001F460D46914600F056F8CC
:104FFC00254B1C6834B9254C1C60254B13B11B6820
:10500C00C4F8883063681F2B07DDD8F8000000F067
:10501C0047F84FF0FF30BDE8F8834EB3D4F8880062
:10502C0088B91C4B23B9D8F8000000F038F8F0E729
:10503C004FF48470FFF784FA0028F4D00023C0E901
:10504C004033C4F88800636840F8239001229A40EA
:10505C0000EB8301D0F800311343C0F80031022E6D
:10506C00C1F8807002BFD0F804311343C0F804318A
:10507C006368D8F800005A1C0233626044F823506D
:10508C0000F00EF80020C6E7E8E703205CE70320F9
:10509C00000000004D450B00A8E603207047704748
:1050AC00704700002D400B0069400B0091400B0035
:1050BC0095400B0000000000000000000000000004
:1050CC00EB450B00E1450B00D7450B00CD450B0024
:1050DC00C1450B00B5450B00414C0B00494C0B0076
:1050EC00A9450B00A1450B0097450B008D450B0006
:1050FC00794C0B006170700025592D256D2D2564A0
:10510C005425483A254D3A2553257A00617363742A
:10511C00696D6500000000000000000065480B0090
:10512C0055480B0057480B00000000000000000021
:10513C004B490B00B3490B0089490B0051460B003E
:10514C007B490B004D490B005D490B00AD490B0031
:10515C006D490B0045490B000000000000000000E9
:10516C004D4A0B00B94A0B00914A0B0051460B00FB
:10517C00614A0B007D4A0B006F4A0B008B4A0B00F7
:10518C004F4A0B00534A0B000000000000000000C7
:10519C00F14A0B003B4B0B00134B0B00F34A0B007B
:1051AC001B4B0B00234B0B002B4B0B00334B0B00FF
:1051BC000000000000000000E34B0B00D94B0B007B
:1051CC00CF4B0B00854B0B00C34B0B00B74B0B00AD
:1051DC00414C0B00494C0B00AB4B0B00A34B0B0091
:1051EC00994B0B008F4B0B00794C0B00000000000F
:1051FC0000000000014C0B000B4C0B00154C0B007D
:10520C001F4C0B00294C0B00354C0B00414C0B0078
:10521C00494C0B00514C0B005D4C0B00654C0B00CA
:10522C006F4C0B00794C0B00005245454E54206DD1
:10523C00616C6C6F63207375636365656465640092
:10524C002F6D6E742F776F726B73706163652F7730
:10525C006F726B73706163652F4743432D31302D33
:10526C00706970656C696E652F6A656E6B696E73BB
:10527C002D4743432D31302D706970656C696E6517
:10528C002D34385F32303230313132345F31363098
:10529C00363138303634312F7372632F6E65776C3C
:1052AC0069622F6E65776C69622F6C6962632F730C
:1052BC0074646C69622F72616E642E63000000006E
:1052CC00CD410B00F5450B001D460B0041460B0074
:1052DC00E5460B00F5460B0011470B00ED4B0B00A0
:0452EC00514D0B0015
:1052F000040000001400000003000000474E5500A9
:10530000B901804E734416475692019BD92EA2AC28
:045310001AB1A9FC29
:1053140018510B0048E603200000000000000000C4
:105324000000000000000000000000000000000079
:105334000000000000000000000000000000000069
:105344000000000000000000000000000000000059
:105354000000000000000000000000000000000049
:105364000000000000000000000000000000000039
:0C5374000000000000000000ECE7032037
:045380000000000029
:10538A0000000102030405060708090A0B0C0D0EAA
:10539A000F101112131415161718191A1B1C1D1E9B
:0453AA001F20280098
:0453AE0078563412E7
:04000003B000401CED
:00000001FF
